:103C000011241FBECFE5D4E0DEBFCDBF20E0A0E68B
:103C1000B0E001C01D92A03EB207E1F70E94321E43
:103C20000C94AB1F0C94311E5D9BFECF8CB9089594
:103C30005F9BFECF8CB1089581E40E94141E86E53F
:103C40000E94141E82E50E94141E82E40E94141E2B
:103C50008FE40E94141E8FE40E94141E84E50C94CD
:103C6000141E0895959A8D9AF894A8950FB6F89415
:103C7000A89581B5886181BD11BC0FBE8F98979AB8
:103C800010BC83E389B988E18AB986E880BDC0E0C9
:103C9000D0E000E010E05F9B03C08CB1833589F079
:103CA000C03981E0D80728F0979895988D98F80149
:103CB00009958FE39CE90197F1F700C00000219678
:103CC000EACF0E941C1EF12CC0E0D0E0A3E0BA2E87
:103CD000B8E1AB2E1CE0912E01E1E02E8824839404
:103CE00085E0282E0E94181E813611F489E51BC13B
:103CF000813451F40E94181EC82FD0E0DC2FCC274D
:103D00000E94181EC82BF3C0823641F489E50E9438
:103D1000141E80E00E94141E80E805C1823409F060
:103D200067C00E94181E0E94181E582E0E94181E5E
:103D3000382E00E610E06801412C451418F40E946A
:103D4000181E01C08FEFF60181936F014394F0E8D4
:103D50004F12F3CF85E7F812BCC096E4391231C098
:103D6000AE0160E070E0440F551F661F771F209181
:103D70006000DB01CA01E801E98130E03E2BFC0173
:103D8000090180925700E89511240296A11DB11DEA
:103D90005A945A940E5F1F4F552019F0E80128815C
:103DA000EACFFA0120925700E89507B600FCFDCF54
:103DB000E0925700E895B695A79597958795EC0101
:103DC00096C0F5E43F1293C0452C6E01F801619155
:103DD0008F01C6010E949E1FFFEFCF1ADF0A4A948F
:103DE0004110F4CF21968FEF850DC80FD11D7FC0F4
:103DF000873609F041C00E94181E0E94181ED82E56
:103E00000E94181E863419F5CE01A0E0B0E02C0106
:103E10003D01440C551C661C771CF201C591D491E0
:103E20008C2F0E94141E8D2F0E94141E82E0480EBB
:103E3000511C611C711CDA94DA94D110EECFD301BD
:103E4000C201B695A79597958795EC014BCF853420
:103E500009F048CFCD2C8E01C8010E94961F0E9408
:103E6000141E0F5F1F4FCA94C110F6CF21968FEF1B
:103E70008D0DC80FD11D36CF8536A9F495E7F912FF
:103E800036C0E0E0F0E0B0925700E89507B600FCDD
:103E9000FDCFE058FF4FE1158CE3F807A1F7E09262
:103EA0005700E89524C0853439F40FB6F894A895E6
:103EB000A1BC0FBE91BC1BC08035C9F08C34B9F0D9
:103EC000803711F483E52FC0843729F485E70E94F9
:103ED000141E80E028C098E8980F923018F40E94D1
:103EE000181E05C0843529F40E94181EF82E8DE096
:103EF0001AC0833519F40E941C1EF4CE863529F4AD
:103F000080E30E94141E88E30EC0833741F483E0EF
:103F10000E94141E84E90E94141E8EE104C08B319D
:103F200009F4E0CE8FE30E94141EDCCEE199FECFAF
:103F30009FBB8EBBE09A99278DB30895262FE199F8
:103F4000FECF9FBB8EBB2DBB0FB6F894E29AE19AD1
:0A3F50000FBE01960895F894FFCF0C
:0400000300003C00BD
:00000001FF
