:100000000C942A000C9447000C9447000C94470071
:100010000C9447000C9447000C943E040C94470049
:100020000C9447000C9447000C9447000C948D04EA
:100030000C9447000C9447000C9447000C94470024
:100040000C9447000C9447000C9447000C94470014
:100050000C94470011241FBECFE5D4E0DEBFCDBF16
:1000600010E0A0E6B0E0ECECFBE102C005900D92E0
:10007000A23DB107D9F723E0A2EDB0E001C01D9287
:10008000A630B207E1F70E9449000C94E40D0C94ED
:1000900000000E9484040E94AE03BD9A0E940202E6
:1000A0000E94380288E00E94D20178940E949B0945
:1000B0000E944E050E94DA0A0E9442090E94CB0368
:1000C000FDCF2F923F924F925F926F927F928F92CD
:1000D0009F92AF92BF92CF92DF92EF92FF920F93D7
:1000E0001F93CF93DF93CDB7DEB72C970FB6F8945D
:1000F000DEBF0FBECDBF1B018F9AF894BC0180E01C
:1001000090E00E94AB0C69837A838B839C832BEAFB
:100110003AEA4AEA50E40E94620D6B017C0120E059
:1001200030E040E850E469817A818B819C810E94B3
:10013000620D6D837E838F839887C701B6010E940D
:100140007C0C6C876D817E818F8198850E947C0CF0
:100150007A8769878AE08B87979A20E030E040E8C9
:100160005FE3C701B6010E94050C87FD61C020E076
:100170003FEF4FE757E46D817E818F8198850E9424
:100180005D0D18160CF045C020E030E04AE754E45D
:1001900069817A818B819C810E940A0C2B013C0130
:1001A00020E030E04AE755E40E94620D4B015C011B
:1001B00020E030E040E85FE30E94050C87FD23C0AB
:1001C00020E03FEF4FE757E4C501B4010E945D0D09
:1001D0001816A4F420E030E040E251E4C301B2017B
:1001E0000E94620D0E947C0C6115710521F180E96D
:1001F00091E00197F1F761507109F6CFC501B401A3
:100200000E947C0C02C061E070E0CB010197F1F725
:1002100012C020E030E04FE753E4C701B6010E946E
:100220005D0D18163CF489859A850197F1F706C093
:1002300011E001C01C85812F8A95F1F7979820E085
:1002400030E040E85FE3C701B6010E94050C87FD7E
:1002500061C020E03FEF4FE757E46D817E818F81E1
:1002600098850E945D0D18160CF045C020E030E026
:100270004AE754E469817A818B819C810E940A0C4F
:100280002B013C0120E030E04AE755E40E94620D7A
:100290004B015C0120E030E040E85FE30E94050C88
:1002A00087FD23C020E03FEF4FE757E4C501B401CD
:1002B0000E945D0D1816A4F420E030E040E251E405
:1002C000C301B2010E94620D0E947C0C6115710590
:1002D00021F180E991E00197F1F761507109F6CFC2
:1002E000C501B4010E947C0C02C061E070E0CB014A
:1002F0000197F1F712C020E030E04FE753E4C70167
:10030000B6010E945D0D18163CF489859A85019707
:10031000F1F706C001E001C00C85802F8A95F1F746
:100320008B8581508B87811117CF81E0281A310886
:1003300009F010CF78942C960FB6F894DEBF0FBE5C
:10034000CDBFDF91CF911F910F91FF90EF90DF9084
:10035000CF90BF90AF909F908F907F906F905F9065
:100360004F903F902F900895C09A85E0982F9A95CE
:10037000F1F7C0988A95F1F70895E8ECF0E031972D
:10038000F1F798B3997F98BB98B3660F692B24E077
:10039000829FC0011124862B88BB8FEF8ABB4BBB89
:1003A0000C94B401811102C08EEB1FC0813011F496
:1003B00083EC1BC0823011F488EC17C0833011F439
:1003C0008DEC13C0843011F482ED0FC0853011F430
:1003D00087ED0BC0863011F48CED07C0873011F427
:1003E00086EE03C0883011F48FEF8CBF0895482F3C
:1003F00060E081E00C94BD01482F406860E080E03F
:100400000C94BD0187B38F6087BB84EF91E020E936
:1004100031E0F9013197F1F70197D9F748E360E04E
:1004200080E00E94BD0148E360E080E00E94BD01E1
:100430004CE060E080E00E94BD0141E060E080E0CF
:100440000E94BD0180E49FE10197F1F746E060E082
:1004500080E00E94BD0180E00E94FC0189E783BF2B
:1004600008958370482F4C6060E080E00C94BD01DB
:1004700084E180B986B7846086BF089584EA86BF28
:1004800006B607FEFDCF089584E986BF06B604FCD4
:10049000FDCF089583B984E886BF06B607FEFDCF79
:1004A00081B1887F883159F081B1887F883239F0F5
:1004B00091B1987F81E0903419F080E0089581E057
:1004C0000895FC0196B7662311F0906401C09F7BEC
:1004D00096BF96B7906896BF06B607FEFDCF91B15E
:1004E000987F983521F091B1987F903521F483B1B0
:1004F000808381E0089580E008951F93CF93DF9378
:10050000182FEB010E943E0280ED0E944A028111E9
:1005100002C080E015C0812F0E944A028823C9F3DF
:100520000E943E0281ED0E944A02882391F360E01E
:10053000CE010E946102882361F30E94440281E09F
:10054000DF91CF911F910895CF93DF93D82FC62FBE
:100550000E943E0280ED0E944A02811102C080E0AA
:100560000DC08D2F0E944A028823C9F38C2F0E9450
:100570004A028823A1F30E94440281E0DF91CF91D7
:100580000895CF93DF931F92CDB7DEB7BE016F5FA3
:100590007F4F80E00E947D029981892F8077869528
:1005A00086958695282F220F220F820F9F70890F24
:1005B0000F90DF91CF910895CF93DF931F92CDB726
:1005C000DEB7BE016F5F7F4F81E00E947D0299819F
:1005D000892F8077869586958695282F220F220F62
:1005E000820F9F70890F0F90DF91CF910895CF9365
:1005F000DF931F92CDB7DEB7BE016F5F7F4F82E002
:100600000E947D029981892F8073869586958695B3
:10061000282F220F220F820F9F70890F0F90DF91DA
:10062000CF910895CF93DF931F92CDB7DEB7BE0170
:100630006F5F7F4F83E00E947D02898181500F9020
:10064000DF91CF910895CF93DF931F92CDB7DEB79F
:10065000BE016F5F7F4F0E947D0289810F90DF9105
:10066000CF9108950C94A402CF92DF92EF92FF9263
:100670001F93CF93DF9385E00E94230384FBCC2755
:10068000C0F9CC0F2C2F220F220FC20F8F70C80F72
:1006900084E00E942303182F169516951695167060
:1006A000412F440F440F140F8F70180F86E00E94E3
:1006B0002303F82F90E024E0969587952A95E1F79B
:1006C0002AE0289F6001299FD00C11242C2F30E0B4
:1006D0008EE090E0821B930BCCE0D0E0BE010E9444
:1006E000F10B7B01FF70C6018F0F911DFC01E61B12
:1006F000F70B412F4E0FDF01B695A795B695A7953D
:100700004A0FCF0160E971E00E94DD0B460FCF0177
:1007100064E670E00E94DD0B461B5CE05E9DC0015C
:100720005F9D900D112422503109280F391F5FE180
:10073000529FC001539F900D1124BE010E94DD0BFA
:10074000842F860F67E00E94D10B892FDF91CF9114
:100750001F91FF90EF90DF90CF9008958CE08EBDB9
:100760008FE390E09BBD8ABD89B7806189BF80E03F
:1007700090E02FEF3FEFFC01EE0FFF1FEE0FFF1F8A
:10078000E651FF4F33832283118210820196883015
:10079000910589F70895CF92DF92EF92FF920F9320
:1007A0001F93CF93DF93C0E0D0E001E010E0EE2490
:1007B000EA94FE2C8091D20090E00C2E02C0959518
:1007C00087950A94E2F780FF1CC0CE01880F991F1D
:1007D000880F991FDC01A651BF4F6D01ED91FC916F
:1007E00009959091D20098010C2E01C0220F0A9415
:1007F000EAF7822F809589238093D200F601F38255
:10080000E2822196C830D105A9F6DF91CF911F91E0
:100810000F91FF90EF90DF90CF900895CF9320E05D
:1008200030E0F901EE0FFF1FEE0FFF1FE651FF4F03
:10083000DF011296428153814F3F5F4F31F4918324
:10084000808311967C936E9305C02F5F3F4F2830B5
:10085000310539F7CF91089598E088E10FB6F89403
:10086000A89581BD0FBE91BD88EC90E020E931E0F4
:10087000F9013197F1F70197D9F708951F920F9277
:100880000FB60F9211242F933F934F935F936F9363
:100890008F939F93EF93FF9380E090E041E050E0CF
:1008A000FC01EE0FFF1FEE0FFF1FE651FF4F2281ED
:1008B00033812F3F3F4FB1F022813381232B61F4ED
:1008C0006091D2009A01082E01C0220F0A94EAF723
:1008D000262B2093D20006C022813381215031097A
:1008E00033832283019688309105D1F6FF91EF91F1
:1008F0009F918F916F915F914F913F912F910F90A9
:100900000FBE0F901F90189510BC83E389B988E142
:100910008AB9579A86E880BD08951F920F920FB644
:100920000F9211242F933F934F935F936F937F9375
:100930008F939F93AF93BF93EF93FF930E942C04E9
:10094000FF91EF91BF91AF919F918F917F916F91A7
:100950005F914F913F912F910F900FBE0F901F907D
:100960001895EDE6F1E04E9F90014F9F300D112458
:10097000542F56955695250F311D280F391FC90143
:100980000196437039F4633028F4C90103C0623022
:1009900021F44C966150D9F70DC0262F2170683094
:1009A00018F4222319F004C0222311F04E96F2CF3E
:1009B0004F96F0CF0895CF93C82F692F80E10E9402
:1009C00032036C2F81E1CF910C943203CF9380E1FD
:1009D0000E942303C82F81E10E9423032C2F30E0C3
:1009E000322F2227A901482BCA01CF91089580B345
:1009F00090E0809590958C7399279595879595951E
:100A00008795809315018093140110920A018091BB
:100A10001501E0910A01882379F180FF1DC0AE2FF6
:100A2000AF77B0E0AA0FBB1FA55FBE4F8D919C9121
:100A3000892B91F08091130180FD0EC0F0E0EE0F44
:100A4000FF1FE55FFE4F0190F081E02D0995809139
:100A50000A01806880930A0180910A018F5F809368
:100A60000A018091150186958093150180911301EB
:100A7000869580931301CBCF80911401809313014D
:100A8000E7FF06C06AE070E088EC90E00E94610039
:100A900068E270E087EF94E00C940E0481B3837CED
:100AA00081BB82B38C6382BB0C94F704E82FF0E027
:100AB000EE0FFF1FE55FFE4F718360830895809105
:100AC000D400882319F081508093D4000895809138
:100AD000D400823019F08F5F8093D4000895809104
:100AE000D300882319F081508093D300089580911A
:100AF000D300893019F08F5F8093D3000895E0917F
:100B0000D300E0FD02C0E43059F4F0E0EA5EFE4FAD
:100B10008081893011F4108208958F5F8083089559
:100B2000E1110BC080911601833019F41092160167
:100B300008958F5F809316010895E23059F48091F3
:100B40001801813019F410921801089581E0809302
:100B500018010895E63059F480911C01823019F48F
:100B600010921C0108958F5F80931C010895E83056
:100B700051F480911E01853019F410921E010895E0
:100B80008F5F80931E0108958091D700982F9C73EA
:100B900059F0982F96959695915F9F70990F990FA0
:100BA000837C892B8093D7008091D700869586958A
:100BB0008F700C94D2018091D700982F9C73903243
:100BC00059F0982F969596959F5F9F70990F990F62
:100BD000837C892B8093D7008091D700869586955A
:100BE0008F700C94D2018091D7008E7F8093D700B4
:100BF00085E097E00C94A309CF93C091D700C1FB87
:100C0000992790F981E0892780FBC1F9C093D7002B
:100C10008FEF91E00E94CF0D682FC1FF03C0606885
:100C2000C59A02C06F77C5988FEF91E00E94D70DEB
:100C30008091D7008E7F8093D700CF9108958FEF5A
:100C400091E00E94CF0D807F6091D70066956695F8
:100C50006F70682B8FEF91E00E94D70D8091D700C5
:100C60008E7F8093D70082E496E00C94A309809154
:100C7000D7008E7F8093D7000E94B10982E496E06E
:100C80000C94A3098091D70080FD14C06FE575E036
:100C900083E00E94560567E675E080E00E945605F5
:100CA00064E178E082E00E94560563EF75E081E040
:100CB0000E945605E3EBF0E080E090E02191DC013A
:100CC000AF58BF4F2C9301968D309105B9F78091A5
:100CD000D40091E3980F90937E009FE290937F0061
:100CE00093E39093800081110EC0E3E9F0E080E08F
:100CF00090E02191DC01AF59BF4F2C9301968031D8
:100D00009105B9F70895813071F4E3EAF0E080E0ED
:100D100090E02191DC01AF59BF4F2C9301968031B7
:100D20009105B9F70895823069F4E3E8F0E080E0D6
:100D300090E02191DC01AF59BF4F2C930196803197
:100D40009105B9F70895E3EAF0E080E090E02191A1
:100D5000DC01AF58BF4F2C93019680319105B9F754
:100D60008091D70080FD17C081608093D70064EC2C
:100D700075E083E00E9456056BED75E080E00E940F
:100D800056056FE176E081E00E9456056FE176E05E
:100D900082E00E94560580E28093610099EA909378
:100DA000620090E7909363009AE3909364008093CD
:100DB000650080936600809367008093680080934D
:100DC000690080936A0080936B0080936C0080932D
:100DD0006D009091D700969596959F7025E030E034
:100DE00080E04CEF891741F0F901EF59FF4F408344
:100DF0008F5F2F5F3F4FF6CF90E290936E00805D44
:100E000080936F00909370000895CF93DF9380914B
:100E1000D70080FD1BC067E376E082E00E945605A4
:100E20006CEF75E081E00E94560560E070E083E0C1
:100E30000E94560560E070E080E00E945605109226
:100E4000D4008091D70081608093D7000E94120364
:100E5000C0E2C0937100C0937200E82FF0E0EE0F83
:100E6000FF1FED53FF4F808180937300818180933A
:100E70007400C093750084E00E942303982F92951C
:100E80009370905D909376008F70805D8093770073
:100E9000DEE2D093780085E00E94230384FB99274B
:100EA00090F9905D909379008F70805D80937A00C7
:100EB000D0937B0086E00E942303982F92959F7029
:100EC000905D90937C008F70805D80937D00C093D7
:100ED0007E00C0937F00C09380008091D70081FF87
:100EE00064C082E00E942303982F92959370905DD6
:100EF000909361008F70805D80936200DAE3D093FD
:100F0000630081E00E942303982F92959770905D73
:100F1000909364008F70805D80936500D09366002D
:100F200080E00E942303982F92959770905D909394
:100F300067008F70805D80936800C09369008FE7C1
:100F400080936A00C0936B008091E8008F3F09F1A5
:100F50008091E8002AE0622F0E94D10B805D80938F
:100F60006C008091E8000E94D10B905D90936D0021
:100F7000D0936E008091E9000E94D10B805D809338
:100F80006F008091E9000E94D10B905D90937000FA
:100F900048C08DE280936C0080936D00D0936E000A
:100FA00080936F00809370003CC0C0936100C09339
:100FB0006200C0936300C093640082E00E94230338
:100FC000982F92959370905D909365008F70805DDF
:100FD00080936600DAE3D093670081E00E942303E8
:100FE000982F92959770905D909368008F70805DB8
:100FF00080936900D0936A0080E00E942303982FB9
:1010000092959770905D90936B008F70805D809348
:101010006C00C0936D00C0936E00C0936F00C093CE
:101020007000DF91CF9108958091D7008E7F8093DB
:10103000D7008091D400811103C08CE898E004C0EF
:10104000813021F483EA96E00C94A309823011F4F4
:101050000C942C040895CF93DF930E94E604C6E11C
:10106000D1E028818C814D813AE0839F400D11248D
:101070008A816B819AE0899F600D1124898190E0BB
:101080003AE0239F800D911D11240E94B1040E941B
:10109000DB048881698190E1899F600D112484E0DF
:1010A0000E9432038A816B8130E1839F600D11249D
:1010B00085E00E9432038C816D8190E1899F600DF3
:1010C000112486E00E9432038E816F8130E1839F7C
:1010D000600D112482E00E9432038885698590E1C9
:1010E000899F600D112481E00E94320360E080E05E
:1010F0000E9432030E94340361E0680F83E00E9483
:1011000032030E94B1098091D7008E7F8093D7006F
:10111000DF91CF910C942C04E3E9F0E080E090E0C3
:101120002191DC01AF58BF4F2C930196803191057E
:10113000B9F78091D70080FD58C081608093D700B7
:101140006FE675E083E00E94560567E775E080E092
:101150000E9456056FE775E082E00E9456056BE23B
:1011600078E081E00E94560584E00E942303829586
:1011700083708093160184E00E9423038F70809314
:10118000170185E00E9423038295817080931801E6
:1011900085E00E9423038F708093190186E00E94EE
:1011A000230382958F7080931A0186E00E942303A7
:1011B0008F7080931B0182E00E94230382958370CD
:1011C00080931C0182E00E9423038F7080931D0195
:1011D00081E00E9423038295877080931E0181E045
:1011E0000E9423038F7080931F0180E2809361002F
:1011F00090911601905D9093620090911701905D1F
:10120000909363002EE22093640090911801905D0A
:101210009093650090911901905D909366002093E2
:10122000670090911A01905D9093680090911B0166
:10123000905D9093690080936A0090911C01905D8D
:1012400090936B0090911D01905D90936C009AE3D8
:1012500090936D0090911E01905D90936E0090911F
:101260001F01905D90936F00809370009091D30068
:10127000892F81708F5B9695292F220F920F890FEE
:101280000C94A809CF938FEF91E00E94CF0D881F97
:101290008827881FC091D70080FBC1F9C093D70071
:1012A0008FEF91E00E94CF0D8F70982F990F990FBB
:1012B000C37CC92BC093D7000E94D20185E097E080
:1012C0000E94A3098091D70081FDC59ACF9108950E
:1012D000CF93DF93E0912001F0912101309709F045
:1012E000099580E00E94FC01C0E0D0E0FE01EF58CB
:1012F000FF4F80810E94F7012196C031D105B1F7DF
:1013000080E40E94FC01C0E0D0E0FE01EF59FF4FF5
:1013100080810E94F7012196C031D105B1F78091FB
:1013200060000E94FC0168EC70E088E699E0DF91C3
:10133000CF910C940E040E9468096AE070E088EC7A
:1013400090E00C9461009093210180932001089516
:10135000CF93C82F83E00E943102C0936000CF91E9
:10136000089580E00E94310281E580936000089535
:10137000E091D5008091D6009CE0E99FF001112416
:10138000EE5DFE4FE80FF11D808187FF03C08E9A4E
:10139000969A02C08E9896988091D6008B30C1F0B4
:1013A000E091D50091E0980F9093D6009CE0E99FE2
:1013B000F0011124EE5DFE4FE80FF11D60816F77A3
:1013C00084E6689FB001112488EB99E00C940E0428
:1013D0008E98969808951092D6008091D70081FF3C
:1013E00025C02091550130E02150310980918200C3
:1013F00090E0AC01440F551F840F951F48E4429FB5
:10140000F001439FF00D11248E0F9F1FFC01EA5A3B
:10141000FE4F828182958695869583708093D50054
:1014200060E070E088EB99E00C940E040895CF938F
:10143000DF930E94F702809352010E94DC028093A6
:1014400053010E94C102809354010E9412038093B1
:101450005501809181008F3F21F480915501809347
:10146000810080915501882309F48AC0809182000F
:10147000883109F485C02091550130E021503109AF
:101480008091820090E0AC01440F551F840F951F9E
:1014900048E4429FF001439FF00D11248E0F9F1FDF
:1014A000FC01EA5AFE4F80818F3F09F469C0C09168
:1014B0005501C150D0E08091820090E0FC01EE0F18
:1014C000FF1FE80FF91F4C9F90014D9F300D112415
:1014D000E20FF31FEA5AFE4F908180915201981358
:1014E0002BC08091820090E0FC01EE0FFF1FE80FFF
:1014F000F91FE20FF31FEA5AFE4F918180915301C9
:1015000098131AC0E0918200F0E0CF01880F991F74
:10151000E80FF91F2E0F3F1FF901EA5AFE4F828193
:10152000909154018F73981307C00E94EB0980912A
:1015300082008F5F809382008091820090E0FC01A6
:10154000EE0FFF1FE80FF91F28E42C9FC0012D9F0D
:10155000900D1124E80FF91FEA5AFE4F20812093C5
:10156000E800E0918200F0E09F01220F331FE20FBC
:10157000F31F8E0F9F1FFC01EA5AFE4F818110C09E
:101580008091550190918100981719F01092820076
:1015900004C080915501809381008FEF8093E80013
:1015A0008093E90068EC70E087E19AE0DF91CF91E9
:1015B0000C940E045F926F927F928F929F92AF92E3
:1015C000BF92CF92DF92EF92FF920F931F93CF9330
:1015D000DF9380E00E942303682F6F7780E00E94F2
:1015E000320382E00E942303682F6F7B82E00E9417
:1015F00032038E9A812C912CC12CD12C78E4572E59
:10160000540100E010E05C9C30015D9C700C1124E2
:10161000E12CF12CE801CC0FDD1FC00FD11FC60D4E
:10162000D71DCA5ADE4FE199FECFC7018A0D9B1D17
:101630000E94CF0DFE01EE0DFF1D80832FEFE21AF9
:10164000F20A33E0E316F10471F70F5F1F4F43E036
:10165000A40EB11C08311105D9F68FEFC81AD80AAB
:1016600028E4820E911C36E0C316D10449F6A12C61
:10167000B12C00E010E05CE0952EC0E0D0E0650108
:1016800082E3C81A8EEFD80A909EC001919E900DF9
:1016900011249C012E5D3E4F7901E199FECFC601D8
:1016A0008C0F9D1F0E94CF0DF701EC0FFD1F808353
:1016B0002196CC30D10589F70F5F1F4F4CE0A40E67
:1016C000B11C04301105C9F60E94F7028093520143
:1016D0000E94DC02809353010E94C1028093540156
:1016E0000E9412038093550180915501882309F4CB
:1016F00047C020915501215080E090E048E4249FAC
:1017000090011124C82FFC01EE0FFF1FDF01A80F6D
:10171000B91FA20FB31FAA5ABE4F4C914F3F81F180
:101720005C9140915201451718F4C093820028C083
:101730005C9140915201541306C011965C91409106
:101740005301451790F3E80FF91FE20FF31FEA5A10
:10175000FE4F50814091520154130EC0518140916F
:101760005301541309C04281609154014F7350E0FA
:1017700070E064177507CCF201968831910511F677
:10178000DF91CF911F910F91FF90EF90DF90CF905D
:10179000BF90AF909F908F907F906F905F900C94D0
:1017A000170A991B79E004C0991F961708F0961B39
:1017B000881F7A95C9F780950895AA1BBB1B51E134
:1017C00007C0AA1FBB1FA617B70710F0A61BB70BB1
:1017D000881F991F5A95A9F780959095BC01CD0156
:1017E000089597FB072E16F4009407D077FD09D0D3
:1017F0000E94DD0B07FC05D03EF4909581959F4F2C
:101800000895709561957F4F08950E94E80C08F443
:1018100081E008950E941E0C0C94230D0E941C0D63
:1018200058F00E94150D40F029F45F3F29F00C9408
:101830000C0D51110C94570D0C94120D0E94340D87
:1018400068F39923B1F3552391F3951B550BBB27EF
:10185000AA2762177307840738F09F5F5F4F220F34
:10186000331F441FAA1FA9F335D00E2E3AF0E0E82B
:1018700032D091505040E695001CCAF72BD0FE2F75
:1018800029D0660F771F881FBB1F26173707480709
:10189000AB07B0E809F0BB0B802DBF01FF279358C1
:1018A0005F4F3AF09E3F510578F00C940C0D0C946C
:1018B000570D5F3FE4F3983ED4F38695779567958F
:1018C000B795F7959F5FC9F7880F911D96958795F6
:1018D00097F90895E1E0660F771F881FBB1F621715
:1018E00073078407BA0720F0621B730B840BBA0BD3
:1018F000EE1F88F7E09508950E943C0D88F09F57F1
:1019000098F0B92F9927B751B0F0E1F0660F771F23
:10191000881F991F1AF0BA95C9F714C0B13091F019
:101920000E94560DB1E008950C94560D672F782F44
:101930008827B85F39F0B93FCCF3869577956795DE
:10194000B395D9F73EF490958095709561957F4F4A
:101950008F4F9F4F0895E89409C097FB3EF49095F0
:101960008095709561957F4F8F4F9F4F9923A9F078
:10197000F92F96E9BB279395F69587957795679507
:10198000B795F111F8CFFAF4BB0F11F460FF1BC04B
:101990006F5F7F4F8F4F9F4F16C0882311F096E9DE
:1019A00011C0772321F09EE8872F762F05C066238C
:1019B00071F096E8862F70E060E02AF09A95660F45
:1019C000771F881FDAF7880F9695879597F90895FE
:1019D000990F0008550FAA0BE0E8FEEF1616170640
:1019E000E807F907C0F012161306E407F50798F0A8
:1019F000621B730B840B950B39F40A2661F0232BC1
:101A0000242B252B21F408950A2609F4A140A6953C
:101A10008FEF811D811D089597F99F6780E870E021
:101A200060E008959FEF80EC089500240A94161654
:101A3000170618060906089500240A9412161306BC
:101A4000140605060895092E0394000C11F488234A
:101A500052F0BB0F40F4BF2B11F460FF04C06F5F66
:101A60007F4F8F4F9F4F089557FD9058440F551F3C
:101A700059F05F3F71F04795880F97FB991F61F010
:101A80009F3F79F087950895121613061406551F87
:101A9000F2CF4695F1DF08C0161617061806991FF3
:101AA000F1CF86957105610508940895E894BB27E8
:101AB00066277727CB0197F908950E94E80C08F470
:101AC0008FEF08950E94750D0C94230D0E94150D43
:101AD00038F00E941C0D20F0952311F00C940C0D91
:101AE0000C94120D11240C94570D0E94340D70F3B8
:101AF000959FC1F3950F50E0551F629FF001729FB3
:101B0000BB27F00DB11D639FAA27F00DB11DAA1FC1
:101B1000649F6627B00DA11D661F829F2227B00D0E
:101B2000A11D621F739FB00DA11D621F839FA00D99
:101B3000611D221F749F3327A00D611D231F849FE9
:101B4000600D211D822F762F6A2F11249F57504040
:101B50009AF0F1F088234AF0EE0FFF1FBB1F661FBB
:101B6000771F881F91505040A9F79E3F510580F084
:101B70000C940C0D0C94570D5F3FE4F3983ED4F396
:101B8000869577956795B795F795E7959F5FC1F728
:101B9000FE2B880F911D9695879597F90895E199E9
:101BA000FECF9FBB8EBBE09A99278DB30895262F59
:101BB000E199FECF9FBB8EBB2DBB0FB6F894E29A86
:0C1BC000E19A0FBE01960895F894FFCF43
:101BCC0051204C6F6164696E6720204F532E2E2E6E
:101BDC00207F2033424F484F4B20762E302E312021
:101BEC007FFF18D94550453341D45059334B4120D0
:101BFC0020202059435441484F42555462204250B2
:101C0C00454D3939504B4F43546220445543D9D735
:101C1C00453920FE2048414354504F554B4120201C
:101C2C002020204243D948425443503454D9544381
:021C3C00360070
:00000001FF
